S0120000566F6C74696D6574726F2E73726563DD
S11300000C9434000C9451000C9451000C94510045
S11300100C9451000C9451000C9451000C94510018
S11300200C9451000C9451000C9451000C94510008
S11300300C9451000C9451000C9451000C945100F8
S11300400C9451000C9451000C9451000C945100E8
S11300500C9451000C9451000C9451000C945100D8
S11300600C9451000C94510011241FBECFEFD8E022
S1130070DEBFCDBF11E0A0E0B1E0E4E1F5E002C0F5
S113008005900D92AA30B107D9F721E0AAE0B1E0BA
S113009001C01D92A031B207E1F70E9453000C94F5
S11300A088020C9400008AB18C6F8AB984B18F6382
S11300B084B987B18E7F87B90E94EC0060E080E04C
S11300C090E00E940C010E948900F8CFE82FF0E034
S11300D0E050FF4F30812BB1832F90E0880F991FA0
S11300E0880F991F922F9370892B8BB936FF04C008
S11300F085B1816085B903C085B18E7F85B96623DA
S113010021F085B1826085B9089585B18D7F85B967
S113011008951F93CF93DF93FC0168EE73E00E9470
S11301206002462FCF0164E670E00E946002CB01BA
S11301302AE030E0B9010E946002182FCF01B90112
S11301400E946002C82FCB01B9010E946002D82F1F
S113015085B18F6D85B961E0842F0E94660081EEC0
S113016094E00197F1F700C0000085B1807285B971
S113017085B18F6E85B960E0812F0E94660081EEA3
S113018094E00197F1F700C0000085B1807185B952
S113019085B1876F85B960E08D2F0E94660081EE7E
S11301A094E00197F1F700C0000085B1887085B92B
S11301B085B18B6F85B960E08C2F0E94660081EE5B
S11301C094E00197F1F700C0000085B1847085B90F
S11301D0DF91CF911F910895ECE7F0E08081806476
S11301E08083EAE7F0E08081876880830895ECE704
S11301F0F0E09081907F8F70892B8083EAE7F0E0B4
S113020080818064808380917A0086FDFCCF809118
S11302107800909179000895862F0E94F7009093BA
S11302200B0180930A01BC0180E090E00E9465010B
S113023020E030E040EA50E40E94CB0120E030E0CE
S113024040E85AE30E94CB0160930C0170930D01C6
S113025080930E0190930F0120E030E04AE754E4CC
S11302600E94CB010E943601CB0108950E94AA018D
S113027088F09F5798F0B92F9927B751B0F0E1F063
S1130280660F771F881F991F1AF0BA95C9F714C013
S1130290B13091F00E94C401B1E008950C94C401FE
S11302A0672F782F8827B85F39F0B93FCCF386954C
S11302B077956795B395D9F73EF4909580957095A9
S11302C061957F4F8F4F9F4F0895E89409C097FB26
S11302D03EF490958095709561957F4F8F4F9F4F19
S11302E09923A9F0F92F96E9BB279395F69587955D
S11302F077956795B795F111F8CFFAF4BB0F11F420
S113030060FF1BC06F5F7F4F8F4F9F4F16C08823C6
S113031011F096E911C0772321F09EE8872F762FFC
S113032005C0662371F096E8862F70E060E02AF03D
S11303309A95660F771F881FDAF7880F9695879529
S113034097F9089557FD9058440F551F59F05F3F92
S113035071F04795880F97FB991F61F09F3F79F0E3
S113036087950895121613061406551FF2CF469565
S1130370F1DF08C0161617061806991FF1CF8695E7
S11303807105610508940895E894BB2766277727CB
S1130390CB0197F908950E94DE010C944F020E944C
S11303A0410238F00E94480220F0952311F00C9489
S11303B038020C943E0211240C94C5010E94A2013F
S11303C070F3959FC1F3950F50E0551F629FF001A4
S11303D0729FBB27F00DB11D639FAA27F00DB11DBD
S11303E0AA1F649F6627B00DA11D661F829F222746
S11303F0B00DA11D621F739FB00DA11D621F839FCD
S1130400A00D611D221F749F3327A00D611D231FA2
S1130410849F600D211D822F762F6A2F11249F57F0
S113042050409AF0F1F088234AF0EE0FFF1FBB1FF3
S1130430661F771F881F91505040A9F79E3F5105B2
S113044080F00C9438020C94C5015F3FE4F3983EAD
S1130450D4F3869577956795B795F795E7959F5F5C
S1130460C1F7FE2B880F911D9695879597F90895EE
S113047097F99F6780E870E060E008959FEF80EC53
S1130480089500240A9416161706180609060895F6
S113049000240A9412161306140605060895092E5C
S11304A00394000C11F4882352F0BB0F40F4BF2BCB
S11304B011F460FF04C06F5F7F4F8F4F9F4F08950B
S11304C097FB072E16F4009407D077FD09D00E94FD
S11304D0740207FC05D03EF4909581959F4F0895D2
S11304E0709561957F4F0895AA1BBB1B51E107C00E
S11304F0AA1FBB1FA617B70710F0A61BB70B881FB0
S1130500991F5A95A9F780959095BC01CD0108953E
S1070510F894FFCF89
S10D05143F065B4F666D7D077F6FA5
S9030000FC
